:100000000C9433000C9450000C9450000C9450004D
:100010000C9450000C9450000C9450000C94A903C4
:100020000C9450000C9450000C9450000C94500010
:100030000C9450000C9450000C9450000C94500000
:100040000C9450000C9450000C9450000C945000F0
:100050000C9450002B0F2B0F5A0F5F0F750F2B0FA7
:100060002B0F5A0F5F0F11241FBECFE5D8E0DEBF64
:10007000CDBF10E0A0E6B0E0EAE0F8E202C00590F3
:100080000D92A03DB107D9F727E0A0EDB0E001C087
:100090001D92AB34B207E1F70E9466110C94031471
:1000A0000C940000FC019281911106C040E0618136
:1000B00080810E946A000895913029F441E06181B5
:1000C00080810E946A000895FC01618180810E9404
:1000D0009C010895683008F0C2C0843008F0BFC0A9
:1000E0008130B1F138F0823009F460C0833009F416
:1000F0008AC0089541110CC02AB381E090E002C08B
:10010000880F991F6A95E2F7809582238ABB08952C
:10011000413081F42AB381E090E002C0880F991F3A
:100120006A95E2F7982F909592239ABB9BB3892BFF
:100130008BBB0895423009F092C02AB381E090E071
:1001400002C0880F991F6A95E2F7822B8ABB089537
:1001500041110CC027B381E090E002C0880F991FC5
:100160006A95E2F78095822387BB0895413081F438
:1001700027B381E090E002C0880F991F6A95E2F7EB
:10018000982F9095922397BB98B3892B88BB08959D
:10019000423009F064C027B381E090E002C0880FCC
:1001A000991F6A95E2F7822B87BB089541110CC015
:1001B00024B381E090E002C0880F991F6A95E2F7AE
:1001C0008095822384BB0895413081F424B381E07B
:1001D00090E002C0880F991F6A95E2F7982F9095DA
:1001E000922394BB95B3892B85BB08954230B9F512
:1001F00024B381E090E002C0880F991F6A95E2F76E
:10020000822B84BB089541110CC021B381E090E0A2
:1002100002C0880F991F6A95E2F78095822381BBFF
:100220000895413081F421B381E090E002C0880F4D
:10023000991F6A95E2F7982F9095922391BB92B3FC
:10024000892B82BB0895423051F421B381E090E0C4
:1002500002C0880F991F6A95E2F7822B81BB08952F
:10026000683008F068C0843008F065C08130F9F06B
:1002700030F0823099F1833009F447C008952AB3F1
:1002800081E090E002C0880F991F6A95E2F7282369
:1002900009F451C0413021F49BB3892B8BBB0895E5
:1002A000411149C09BB3809589238BBB089527B327
:1002B00081E090E002C0880F991F6A95E2F7282339
:1002C000D1F1413021F498B3892B88BB08954111B5
:1002D00032C098B38095892388BB089524B381E008
:1002E00090E002C0880F991F6A95E2F7282319F160
:1002F000413021F495B3892B85BB089541111BC072
:1003000095B38095892385BB089521B381E090E062
:1003100002C0880F991F6A95E2F7282361F04130E7
:1003200021F492B3892B82BB0895411104C092B38A
:100330008095892382BB08956830D0F58430D0F54C
:10034000813091F028F08230D9F0833029F134C027
:1003500029B381E090E002C0880F991F6A95E2F707
:10036000822361F181E0089526B381E090E002C02C
:10037000880F991F6A95E2F7822311F181E00895B1
:1003800023B381E090E002C0880F991F6A95E2F7DD
:100390008223C1F081E0089520B381E090E002C0A3
:1003A000880F991F6A95E2F7822371F081E0089522
:1003B00080E0089580E0089580E0089580E0089549
:1003C00080E0089580E0089580E00895FC010396A0
:1003D000928381832FEF3FEF34832383968385833A
:1003E0009087878310820895FC01118610860895F6
:1003F000CF93DF93EB01488159814F3F2FEF520795
:1004000021F4FC01A781B0850DC0DC01139601C069
:10041000DF011296ED91FC911397208131814217F3
:100420005307B0F71296ED91FC911397FB83EA8383
:10043000D583C483BD83AC831396DC93CE9312978C
:1004400099878887FC0120812F5F2083DF91CF91DE
:100450000895CF93DF93FC01A085B185C281D3813C
:10046000848195819D838C83C481D5818281938190
:100470009B838A8311968D919C911297E817F907B7
:1004800031F48481958112969C938E9311971186F5
:1004900010868C9181508C938C91DF91CF9108952F
:1004A0001BBC8CE78ABD8BE08EBD89B7806189BF9C
:1004B000089531E1FC013083319722E220833197A6
:1004C000A3E3A083319760833197708331971082C3
:1004D000319760E8608331971082319762E06083E2
:1004E000319763E06083319764E06083319765E022
:1004F0006083319766E06083319767E0608331976E
:1005000068E06083319769E06083319760E16083E0
:1005100031973083319732E13083319733E1308343
:10052000319734E13083319735E13083319736E1CB
:100530003083319737E13083319738E13083319719
:1005400039E13083319730E23083319731E23083C3
:1005500031972083319723E220833197408331976D
:100560005083319726E22083319727E22083319709
:1005700028E22083319729E22083319720E32083EA
:10058000319721E32083869708950E945002A0911D
:100590001607B0911707CD91CDBFDD91DEBFFF915A
:1005A000EF91DF91CF91BF91AF919F918F917F910B
:1005B0006F915F914F913F912F911F910F91FF90FC
:1005C000EF90DF90CF90BF90AF909F908F907F90F3
:1005D0006F905F904F903F902F901F900F900FBEA5
:1005E0000F90089581E008950F920FB6F8940F923E
:1005F0001F9211242F923F924F925F926F927F929F
:100600008F929F92AF92BF92CF92DF92EF92FF9222
:100610000F931F932F933F934F935F936F937F930A
:100620008F939F93AF93BF93CF93DF93EF93FF93FA
:10063000A0911607B09117070DB60D920EB60D9248
:100640000E94240CA0911607B0911707CD91CDBF41
:10065000DD91DEBFFF91EF91DF91CF91BF91AF911F
:100660009F918F917F916F915F914F913F912F91CA
:100670001F910F91FF90EF90DF90CF90BF90AF90C0
:100680009F908F907F906F905F904F903F902F90B2
:100690001F900F900FBE0F9008950F920FB6F89411
:1006A0000F921F9211242F923F924F925F926F925E
:1006B0007F928F929F92AF92BF92CF92DF92EF92F2
:1006C000FF920F931F932F933F934F935F936F93DB
:1006D0007F938F939F93AF93BF93CF93DF93EF93CA
:1006E000FF93A0911607B09117070DB60D920EB6A5
:1006F0000D920E941F0A81110E94240CA0911607DE
:10070000B0911707CD91CDBFDD91DEBFFF91EF9185
:10071000DF91CF91BF91AF919F918F917F916F9119
:100720005F914F913F912F911F910F91FF90EF900B
:10073000DF90CF90BF90AF909F908F907F906F9001
:100740005F904F903F902F901F900F900FBE0F9093
:1007500008950E944D031895EAEDF0E0AEEDB0E08B
:10076000B183A08313821282E6EBF6E0F093D90006
:10077000E093D800138212821182108288ED95E0F6
:1007800013969C938E931297ED93FC939093D500C0
:100790008093D4009093D7008093D6000895CF9390
:1007A000DF93EC01AAEDB0E001C0DF01ED91FC9117
:1007B0001197EC17FD07C8F312968D919C91139732
:1007C0009D01280F391FC217D30749F42A813B81A5
:1007D000820F931F13969C938E931297ED018A813B
:1007E0009B819E01280F391FE217F307C1F4209166
:1007F000D8003091D900E217F30771F022813381DC
:10080000820F931F9B838A83ED91FC9111978081C6
:1008100091819983888305C03983288302C0F98335
:10082000E883CA17DB0711F0CD93DC93DF91CF91FA
:100830000895EF92FF920F931F93CF93DF938C0154
:100840000E940C0A8091D8009091D900892B11F454
:100850000E94AC030115110549F00B3F8FEF1807FB
:1008600018F40B5F1F4F02C000E010E011230CF4DE
:1008700066C00115110509F465C08091D6009091FC
:10088000D7008017910708F460C0C091DA00D091BA
:10089000DB00EAEDF0E002C0FE01EC018A819B8101
:1008A0008017910720F4888199810097A9F780919A
:1008B000D8009091D900C817D90709F449C0E08041
:1008C000F18084E0E80EF11C888199819183808316
:1008D0002A813B81201B310B2930310550F0CE019C
:1008E000800F911FFC01338322831B830A830E94A4
:1008F000CF032A813B818091D6009091D700821B43
:10090000930B9093D7008093D6004091D4005091E0
:10091000D5008417950720F49093D5008093D400D8
:1009200030683B832A83198218828091D20090918B
:10093000D30001969093D3008093D2000BC0E12C9A
:10094000F12C08C0E12CF12C05C0E12CF12C02C0E7
:10095000E12CF12C0E94390BC701DF91CF911F913F
:100960000F91FF90EF9008950F931F93CF93DF9314
:10097000009749F1EC0124972A813B8133231CF530
:1009800048815981452BF9F43F773B832A830E94A4
:100990000C0A8A819B812091D6003091D700820F6A
:1009A000931F9093D7008093D600CE010E94CF036F
:1009B0008091D0009091D10001969093D1008093C6
:1009C000D0000E94390BDF91CF911F910F910895B4
:1009D0000FB6F8940F92FC01828D811102C081E064
:1009E00001C080E00F900FBE08950FB6F8940F92EB
:1009F000FC01228D838D281302C081E001C080E0BC
:100A00000F900FBE08950F931F93CF93DF93EC01C8
:100A1000042F1A8D4C8D4423B9F1011116C050E0FA
:100A20008A819B810E94FA132C8D8A819B81820F7F
:100A3000911D9B838A832C813D818217930720F12E
:100A4000888199819B838A831FC050E08E819F811A
:100A50000E94FA138C8D90E09195819591092E81D9
:100A60003F81280F391F3F832E83488159812417E6
:100A7000350730F42C813D81820F931F9F838E8335
:100A8000023011F4111111501F5F1A8F80E0DF91B5
:100A9000CF911F910F910895FC01448D4423A9F03B
:100AA00050E026813781240F351F378326838481C8
:100AB00095812817390720F080819181978386835B
:100AC000CB01668177810E94FA1308951F93CF931B
:100AD000DF93EC010FB6F8940F921E8D0BC089893D
:100AE000882351F0CE0141960E94D30C81110E94BF
:100AF000CD0D115011169CF38FEF8E8F0F900FBEFE
:100B00000FB6F8940F921D8D0BC08885882351F085
:100B1000CE0108960E94D30C81110E94CD0D115078
:100B200011169CF38FEF8D8F0F900FBEDF91CF9139
:100B30001F9108950F931F93CF93DF93FC01362FDE
:100B4000892B09F44DC0238D222309F44BC0022FB9
:100B500010E08FEF9FEFB8010E94E013448D842FC7
:100B600090E06817790708F43FC0EF010FB6F894DA
:100B70000F9260817181FB01249FE00DF11D112412
:100B8000FD83EC831A8E7B836A8301501109809F59
:100B9000A001819F500D909F500D1124CB01840F17
:100BA000951F9F838E838FEF8D8F8E8F31110CC099
:100BB0008885882389F0CE0108960E94D30C88236B
:100BC00059F00E94F40208C0CE0108960E94E60186
:100BD000CE0141960E94E6010F900FBE81E005C054
:100BE00080E003C080E001C080E0DF91CF911F91E1
:100BF0000F9108950F931F93F801611103C01183A2
:100C0000008302C051834083838F648F61E0CF01F2
:100C10000E949A051F910F910895DF92EF92FF9223
:100C20000F931F93CF93DF93382FE62F882329F15B
:100C3000682F70E08FEF9FEF0E94E0138E2F90E0FF
:100C400068177907E8F03E9FC0011124813E2FEF1D
:100C50009207C8F4D42EDE2FC32F4F960E9419049A
:100C60007C01009791F08C012D2DAC01415E5F4F0E
:100C70006D2F8C2F0E94FA0508C0E12CF12C05C0C5
:100C8000E12CF12C02C0E12CF12CC701DF91CF91B6
:100C90001F910F91FF90EF90DF900895CF92DF9218
:100CA000EF92FF920F931F93CF93DF9300D000D06A
:100CB0001F92CDB7DEB78C017B015D834C83C22EC2
:100CC000D12C0FB6F8940F92F801928D838D98175E
:100CD00018F0F2E0CF1219C04C2DB701C8010E94E4
:100CE0000305F8019189992349F0C80141960E94B2
:100CF000D30C882331F00E94F40203C081110E94BA
:100D0000F4020F900FBE81E04DC08C819D81892B34
:100D100021F40F900FBE80E045C0D11006C0CE0177
:100D200001960E94900DDD24D3940F900FBE0E9477
:100D30000C0A0FB6F8940F92F801858D8F3F09F4D5
:100D4000158EF801868D8F3F09F4168E0F900FBE19
:100D5000BE016C5F7F4FCE0101960E949B0D8111F9
:100D60001BC0C8010E94F504882381F06C817D813D
:100D7000C80108960E94780CC8010E9466050E946E
:100D8000390B81119ECF0E94F4029BCFC8010E94B3
:100D900066050E94390B95CFC8010E9466050E9426
:100DA000390B80E00F900F900F900F900F90DF9114
:100DB000CF911F910F91FF90EF90DF90CF9008950A
:100DC000EF92FF920F931F93CF93DF938A01FC0161
:100DD000528D338D531710F0223021F5422F7801B8
:100DE000EC011E8D8A8DCE010E9403051F3F81F408
:100DF00089898823C9F0CE0141960E94D30C8823AB
:100E0000A9F0E114F104A1F081E0F701808313C09F
:100E10000E941C0A181770F4FF24F394F10EFE8E42
:100E200081E009C080E007C081E005C081E003C027
:100E300081E001C081E0DF91CF911F910F91FF9080
:100E4000EF900895CF92DF92EF92FF920F931F934E
:100E5000CF93DF9300D000D01F92CDB7DEB78C01C7
:100E60006B015D834C83E12C0FB6F8940F92F8016F
:100E7000F28CFF20A9F0B601C8010E944C05FA943B
:100E8000F801F28E8085882339F0C80108960E9407
:100E9000D30C81110E94F4020F900FBE81E053C069
:100EA0008C819D81892B21F40F900FBE80E04BC077
:100EB000E11006C0CE0101960E94900DEE24E3944D
:100EC0000F900FBE0E940C0A0FB6F8940F92F80113
:100ED000858D8F3F09F4158EF801868D8F3F09F4BB
:100EE000168E0F900FBEBE016C5F7F4FCE01019634
:100EF0000E949B0D81111BC0C8010E94E804882339
:100F000081F06C817D81C80141960E94780CC801F6
:100F10000E9466050E94390B8111A6CF0E94F4023F
:100F2000A3CFC8010E9466050E94390B9DCFC8015E
:100F30000E9466050E94390BC8010E94E8048823BC
:100F400009F492CF80E00F900F900F900F900F90C8
:100F5000DF91CF911F910F91FF90EF90DF90CF9095
:100F60000895CF93DF93EC010FB6F8940F928D8D17
:100F70008F3F09F41D8E8E8D8F3F09F41E8E0F90CA
:100F80000FBE8A8D811104C0CE0141960E948A0C49
:100F9000CE010E946605DF91CF910895E091DE06B3
:100FA000F091DF068081811107C08FEF9FEF909352
:100FB000BE068093BD060895E091DE06F091DF063F
:100FC0000580F681E02D808191819093BE0680930B
:100FD000BD060895CF93DF93EC018F89988D0E9411
:100FE000B404CE010E94B404DF91CF9108956F92B2
:100FF0007F928F929F92AF92BF92CF92DF92EF92A9
:101000000F931F93CF93DF93CDB7DEB74C01F5015C
:101010008789908D215031093C01620E731E611544
:10102000710589F415C0822F90E0FB01E80FF91FCC
:101030003081D501A80FB91F59963C938081882330
:1010400029F02F5F01C020E0283068F3F50110A2DD
:10105000F3E0FE1520F40F2EF3E0EF2EF02DF50156
:10106000E68AC50102960E94F401C5010C960E9411
:10107000F401F501B186A08684E090E08E19910913
:1010800095878487B38AA28AA801B401C3010E940C
:101090005902F50191838083C114D10419F0F6013E
:1010A000B182A082DF91CF911F910F91EF90DF90DD
:1010B000CF90BF90AF909F908F907F906F9008954A
:1010C000CF93C0E010C08C2F90E09C01220F331F03
:1010D000220F331F220F331F820F931F8E50994F01
:1010E0000E94E601CF5FC43070F389EE96E00E9463
:1010F000E60180EE96E00E94E60183ED96E00E9414
:10110000E6018AEC96E00E94E60189EE96E0909373
:10111000DF068093DE0680EE96E09093DD068093F6
:10112000DC06CF910895CF93DF93EC010FB6F894CE
:101130000F928091C8068F5F8093C8068091160732
:1011400090911707892B59F4D0931707C09316076E
:101150008091C806813099F40E94600810C0809187
:10116000C40681110CC0E0911607F091170796890B
:101170008E89891720F0D0931707C09316078091A6
:10118000BF068F5F8093BF068E899091C506981722
:1011900010F48093C50690E0FC01EE0FFF1FEE0FE8
:1011A000FF1FEE0FFF1F8E0F9F1FFC01EE50F94F28
:1011B0000180F281E02DFD83EC83848195819F8302
:1011C0008E83A481B581CE01029613969C938E9353
:1011D000129795838483EE89F0E0CF01880F991FE1
:1011E000880F991F880F991FE80FF91FEE50F94FCC
:1011F000FB87EA8780818F5F80830F900FBE80918D
:10120000C406882351F0E0911607F09117079689DC
:101210008E89981710F40E94F402DF91CF910895FF
:10122000CF93DF931CC00FB6F8940F92E091CF06D6
:10123000F091D006C681D781CE0102960E94290284
:101240008091C80681508093C8068091C90681505C
:101250008093C9060F900FBECE010E94EA078091CD
:10126000C9068111E0CFDF91CF9108950E94100946
:101270008091F2068230D0F30E94F402F7CF0F93F0
:101280001F93CF93DF93EC010091C6061091C70620
:10129000809116079091170702960E942902C00FAD
:1012A000D11FE0911607F0911707D383C283C017AF
:1012B000D10768F460911607709117078091DC06DA
:1012C0009091DD066E5F7F4F0E94F80117C060911C
:1012D0001607709117078091DE069091DF066E5F0A
:1012E0007F4F0E94F8018091BD069091BE06C817FD
:1012F000D90720F4D093BE06C093BD06DF91CF91ED
:101300001F910F9108952F923F924F925F926F928B
:101310007F928F929F92AF92BF92CF92DF92EF9285
:10132000FF920F931F93CF93DF933C011B015A0150
:101330002901CA010E9419046C01892B99F086E2E7
:1013400090E00E941904EC01892B41F086E2FE0135
:1013500011928A95E9F7D88ECF8A06C0C6010E94FD
:10136000B40402C0C0E0D0E0209791F0950140E0C5
:1013700050E0812C912C5E016701E02E8201B101C9
:10138000C3010E94F707CE010E94930881E001C0CB
:101390008FEFDF91CF911F910F91FF90EF90DF9032
:1013A000CF90BF90AF909F908F907F906F905F9005
:1013B0004F903F902F900895EF92FF920F930F2E32
:1013C000FBEBEF2EF6E0FF2EF02D00E020E030E00A
:1013D00045E550E06EE770E086E399E00E948309FE
:1013E000813011F40E940410813081F4F8948FEF61
:1013F0009FEF9093BE068093BD0681E08093C40664
:101400001092C7061092C6060E94C502809179000C
:101410000F91FF90EF9008958091BA068F5F8093AF
:10142000BA0608950FB6F8940F928091C60690916F
:10143000C7060F900FBE08958091C80608950F93B8
:101440001F93CF93DF938091BA06811101C1C091A0
:10145000C606D091C7068E010F5F1F4F1093C706B7
:101460000093C60601151105B9F48091DE0690912E
:10147000DF062091DC063091DD063093DF062093F5
:10148000DE069093DD068093DC068091C0068F5FB8
:101490008093C0060E94CE078091BD069091BE0643
:1014A0000817190720F480E0B8C081E001C080E08F
:1014B000E091DE06F091DF069081911107C02FEFD9
:1014C0003FEF3093BE062093BD06A7C0E091DE0635
:1014D000F091DF060580F681E02D0680F781E02D92
:1014E000228133810217130728F43093BE0620931C
:1014F000BD0693C0A285B38524813581468157817D
:10150000E9015D834C832681378144815581E9015E
:101510005B834A8311962D913C911297AF014E5FE8
:101520005F4F2417350731F42681378112963C939B
:101530002E931197138612869C9191509C93A489A7
:10154000B589109719F12685378560897189E90178
:101550007D836C832089318966857785E9017B836A
:101560006A8311966D917C9112979F01245F3F4F82
:101570006217730731F42089318912963C932E93B8
:101580001197158A148A9C9191509C932689909169
:10159000C506921710F42093C50630E0D901AA0FB2
:1015A000BB1FAA0FBB1FAA0FBB1F2A0F3B1FD901CE
:1015B000AE50B94F11960D90BC91A02DB583A48368
:1015C00014962D913C9115973783268314962D916F
:1015D0003C911597E9015B834A8315965C934E9382
:1015E0001497A689B0E09D01220F331F220F331FED
:1015F000220F331FA20FB31FAE50B94FB387A2877C
:101600009C919F5F9C932689E0911607F0911707A4
:101610009689921708F449CF4BCFE0911607F091C5
:101620001707268930E0F901EE0FFF1FEE0FFF1FAD
:10163000EE0FFF1F2E0F3F1FF901EE50F94F908163
:10164000923008F081E09091C10691110CC00CC05D
:101650008091C2069091C30601969093C306809331
:10166000C20680E001C081E0DF91CF911F910F9110
:101670000895CF93DF930FB6F8940F928091BA0636
:1016800081508093BA068091BA068111BFC08091C3
:10169000C806811196C0BDC0E091D806F091D90668
:1016A0000680F781E02DA489B589C685D785808914
:1016B00091899D838C83C089D189868597859B83F9
:1016C0008A8311962D913C911297CF010C96281781
:1016D000390731F48089918912969C938E931197E2
:1016E000158A148A8C9181508C93A285B385C4810C
:1016F000D581868197819D838C83C681D7818481A2
:1017000095819B838A8311968D919C9112979F015D
:101710002E5F3F4F8217930731F48681978112968F
:101720009C938E931197138612868C9181508C9383
:1017300086899091C506981710F48093C50690E0AD
:10174000DC01AA0FBB1FAA0FBB1FAA0FBB1F8A0F6A
:101750009B1FDC01AE50B94F11960D90BC91A02D8E
:10176000B583A48314968D919C9115979783868356
:101770001496CD91DC9115973B832A8315963C9363
:101780002E931497A689B0E0CD01880F991F880F7A
:10179000991F880F991FA80FB91FAE50B94FB38773
:1017A000A2878C918F5F8C939689A0911607B09138
:1017B000170756968C91981730F081E08093C106F8
:1017C00002C0E0E0F0E08091D306811165CFEF2BFD
:1017D00011F00E94CE07C091C206D091C306209797
:1017E00069F00E941F0A882319F081E08093C106E6
:1017F0002197B9F71092C3061092C2068091C106D4
:10180000882331F00E94F40281E003C080E001C02F
:1018100080E00F900FBEDF91CF910895CF93DF93BB
:10182000EC01892B49F00E940C0A60E0CE010E9475
:101830003F090E94390B01C080E0811102C00E9463
:10184000F402DF91CF9108958091BA06882321F0A8
:1018500081E08093C10608951092C1062091C506CB
:1018600001C02150822F90E0FC01EE0FFF1FEE0F10
:10187000FF1FEE0FFF1FE80FF91FEE50F94F3081E9
:10188000332379F3AC01440F551F440F551F440F08
:10189000551F480F591FDF010180F281E02D0280A2
:1018A000F381E02D1296FC93EE9311974B50594F14
:1018B000E417F50729F442815381FD0152834183E6
:1018C000FC01EE0FFF1FEE0FFF1FEE0FFF1F8E0F2D
:1018D0009F1FFC01EE50F94F0180F281E02D8681BF
:1018E000978190931707809316072093C506089554
:1018F000CF93DF93EB016091160770911707645F38
:101900007F4F0E94F80161E0CE010E943F09DF9104
:10191000CF9108950F931F93CF93DF93FC018B0119
:10192000A181B2818091160790911707EC01BF87C2
:10193000AE87809116079091170714962D913C91D0
:101940001597EC01398B288B14968D919C911597E6
:101950002091160730911707245F3F4FEC013B831E
:101960002A832091160730911707245F3F4F159661
:101970003C932E931497A0911607B0911707559694
:10198000FC93EE93549790819F5F9083442311F0D2
:101990000FEF1FEF642FC8010E943F09DF91CF9125
:1019A0001F910F910895CF93DF93DC011596ED9170
:1019B000FC9116970680F781E02DA489B589C6852C
:1019C000D785808991899D838C83C089D1898685BB
:1019D00097859B838A8311968D919C9112979F0185
:1019E000245F3F4F8217930731F4808991891296C3
:1019F0009C938E931197158A148A8C9181508C93A5
:101A00008091BA06811160C0A285B385C481D58159
:101A1000868197819D838C83C681D78184819581BE
:101A20009B838A8311968D919C9112979F012E5FC3
:101A30003F4F8217930731F48681978112969C93CA
:101A40008E931197138612868C9181508C93868980
:101A50009091C506981710F48093C50690E0DC01BC
:101A6000AA0FBB1FAA0FBB1FAA0FBB1F8A0F9B1F6A
:101A7000DC01AE50B94F11960D90BC91A02DB583ED
:101A8000A48314968D919C911597978386831496C1
:101A9000CD91DC9115973B832A8315963C932E9329
:101AA0001497A689B0E0CD01880F991F880F991F60
:101AB000880F991FA80FB91FAE50B94FB387A287DF
:101AC0008C918F5F8C931CC043ED56E0DA01119628
:101AD000CD91DC911297D787C6878C819D81918BA0
:101AE000808B8C819D81DC0113963C932E93129701
:101AF0003D832C83558B448BDA018C918F5F8C93C3
:101B00009689E0911607F09117078689891720F4C6
:101B100081E08093C10601C080E0DF91CF910895FC
:101B20002091C006FC0120832091C6063091C70693
:101B3000328321830895CF93DF930FB6F8940F92E9
:101B40004091C6065091C706EC0129813A81DA011D
:101B5000A21BB30BF881E091C006FE1741F04217BB
:101B6000530728F0FB011182108281E011C0EB01C4
:101B700028813981A217B30740F42A1B3B0B398314
:101B800028830E94900D80E003C01982188281E0B2
:101B90000F900FBEDF91CF91089581E08093C10631
:101BA00008958091C406882331F08091BA0681118E
:101BB00004C082E0089581E0089580E00895DC018A
:101BC000E0912007F0912107808191E0811190E060
:101BD0009C93911106C00580F681E02D8081918152
:101BE000089580E090E00895FC01738362839187FB
:101BF00080874617570790F0421B530B84859585C5
:101C000048175907E0F4BF016E5F7F4F80911E07B0
:101C100090911F070E94F80180E008954217530732
:101C200018F46217730768F4BF016E5F7F4F8091ED
:101C30002007909121070E94F80180E0089581E03B
:101C4000089581E00895EF92FF920F931F93CF9331
:101C5000DF93EC018B017A0108C08C859D85080F0C
:101C6000191FE889F989CE0109956C857D85600F7A
:101C7000711F9801A701CE010E94F40D8111EDCFD3
:101C8000DF91CF911F910F91FF90EF900895EF9208
:101C9000FF920F931F93CF93DF938C017B01E09111
:101CA0002007F09121070580F681E02DC681D781BC
:101CB000CE0102960E9429028A8982FF06C0A701EE
:101CC000B801CE010E94230E02C08E7F8A8BE88964
:101CD000F989CE010995DF91CF911F910F91FF9066
:101CE000EF90089509C00580F681E02D6FEF7FEF3A
:101CF000808191810E94470EE0912007F091210799
:101D000080818111F0CF80911E0790911F079093E1
:101D1000210780932007F0931F07E0931E07089583
:101D20000F931F93CF93DF938C010E94120AEC0153
:101D30008091180790911907C817D90730F40E94AD
:101D4000720E81E0F801808302C0F8011082D09306
:101D50001907C0931807CE01DF91CF911F910F9102
:101D60000895CF92DF92EF92FF921F93CF93DF936C
:101D70001F92CDB7DEB77C01162F0E940C0ACE0150
:101D800001960E94900E6C018981811127C011116A
:101D90000AC0CE14DF0438F00E94390BB601C70127
:101DA0000E94470E1DC0112341F0E0911E07F091E3
:101DB0001F07808111E0811110E0B7016C197D09C6
:101DC000412F80911C0790911D070E94B1070E942E
:101DD000390B811105C00E94F40202C00E94390B28
:101DE0000F90DF91CF911F91FF90EF90DF90CF90F8
:101DF0000895EF92FF920F931F93CF93DF9300D03C
:101E000000D000D0CDB7DEB77AC0898188230CF42A
:101E100076C00C811D81D8011A968D919C911B97DB
:101E2000892B21F0C80102960E942902CE01069654
:101E30000E94900E7C01E9818E2FEE0F990BAA0B68
:101E4000BB0BFC013197E930F10508F058C0E65DA5
:101E5000FF4F0C94F413F80182898160828B2A81F0
:101E60003B8164857585620F731FA701C8010E94BD
:101E7000F40D882309F443C0D80152968C915297EF
:101E800082FF0DC06A817B811C968D919C911D976C
:101E9000680F791FA701C8010E94230E03C08E7F1F
:101EA000F801828BD8015096ED91FC915197C801B1
:101EB000099525C0F80182898E7F828B20C0D801C8
:101EC00052968C915297816052968C9352976A8168
:101ED0007B811D967C936E931C976E0D7F1D9701E1
:101EE000A701C8010E94F40D0AC0F801828981FD92
:101EF00004C0C8010E94B40402C08E7F828B40E0FF
:101F000050E0BE016F5F7F4F80911C0790911D07CD
:101F10000E942207811179CF26960FB6F894DEBF72
:101F20000FBECDBFDF91CF911F910F91FF90EF902A
:101F30000895CF93DF931F92CDB7DEB7CE01019600
:101F40000E94DF0D69810E94B10E0E94F90EF6CF4A
:101F50000FB6F8940F9280911C0790911D07892B62
:101F6000E9F48BE297E00E94E60182E297E00E94AA
:101F7000E6018BE297E0909321078093200782E2AD
:101F800097E090931F0780931E0740E065E08AE08A
:101F90000E940D0690931D0780931C070F900FBEA3
:101FA00008957F928F929F92AF92BF92CF92DF92CD
:101FB000EF92FF920F931F93CF93DF934C015B013E
:101FC000742E6901E7010E94A80F99828882BD865C
:101FD000AC86DF86CE86198B088BC70102960E94DD
:101FE000F401772019F08A8984608A8BDF91CF9180
:101FF0001F910F91FF90EF90DF90CF90BF90AF9027
:102000009F908F907F900895EF92FF920F930E9480
:10201000A80F80911C0790911D07892B91F00F2E1E
:10202000FAE1EF2EF7E0FF2EF02D03E020E030E0A4
:1020300045E550E063E870E089E99FE00E9483098C
:1020400001C080E00F91FF90EF9008957F928F92F2
:102050009F92AF92BF92CF92DF92EF92FF920F9337
:102060001F93CF93DF936C015B01742E490183E1D1
:1020700090E00E941904EC01009741F01A8A7C015B
:102080009401472DB501C6010E94D10FCE01DF9109
:10209000CF911F910F91FF90EF90DF90CF90BF9065
:1020A000AF909F908F907F9008950F931F93CF9341
:1020B000DF9300D000D01F92CDB7DEB7E0911C07B0
:1020C000F0911D07309771F1D90169835B834A83D1
:1020D0009D838C836630ECF40E94D10D823061F4D4
:1020E00020E0A801BE016F5F7F4F80911C07909197
:1020F0001D070E944E0617C020E040E050E0BE01E0
:102100006F5F7F4F80911C0790911D070E944E06C4
:102110000AC020E0AD01BE016F5F7F4FCF010E947A
:10212000E00601C080E00F900F900F900F900F908D
:10213000DF91CF911F910F910895CF93DF9300D03E
:102140001F92CDB7DEB767E083E00E941C1183E0E9
:10215000898381E08A8382E08B83CE0101960E948D
:10216000A61381E00E94D2130F900F900F90DF9181
:10217000CF910895CF93DF9300D01F92CDB7DEB7F4
:1021800063E081E00E941C1183E0898381E08A83FF
:1021900082E08B83CE0101960E94781381E00E9439
:1021A000A4130F900F900F90DF91CF9108950F938C
:1021B0001F930E94120A00E010E020E030E0AC0122
:1021C00062E080914407909145070E9455101F914D
:1021D0000F9108950F931F930E94120A00E010E0E0
:1021E00020E030E0AC0162E080914207909143072B
:1021F0000E9455101F910F9108950F931F930E94F5
:10220000120A00E010E020E030E0AC0161E08091D3
:102210004407909145070E9455100E94120A20E041
:1022200030E0AC0161E080914207909143070E9449
:1022300055101F910F91089542E00E946A00089581
:1022400041E00E943001089540E00E94300108956D
:102250000E94441380917A0090E00E940E0CF8CF07
:102260000E945A1380917A0090E00E940E0CF8CFE1
:102270008091350781110DC081E00E94D21363E087
:1022800082E00E942011809135078F5F809335078F
:10229000089588EC0E94D21363E082E00E9424112A
:1022A00010923507089580913407811109C081E0AB
:1022B0000E94A413809134078F5F809334070895A0
:1022C00088EC0E94A413109234070895EF92FF92B5
:1022D0000F931F930E94BD110E949D100E94BA107F
:1022E00063E082E00E941C110F2EF8E3EF2EF7E06E
:1022F000FF2EF02D02E020E030E048EC50E06BE8EB
:1023000070E088E291E10E9483090F2EF6E3EF2E40
:10231000F7E0FF2EF02D01E020E030E048EC50E047
:1023200068E970E080E391E10E94830908E311E12C
:1023300020E030E041E069E270E08CEA90E00E9449
:102340002610909345078093440703E511E120E0B0
:1023500030E041E069E270E08EEB90E00E942610F0
:1023600090934307809342070E94DC0980E090E04D
:102370001F910F91FF90EF900895809166009091CA
:1023800067000E94520080916400909165000E9455
:10239000520080916800909169000E9452008091E3
:1023A0006200909163000E945200809160009091C1
:1023B00061000E94520042E060E082E00E946A00F8
:1023C00042E061E082E00E946A0008958091680026
:1023D000909169000E946400809348078091660094
:1023E000909167000E946400809347078091640089
:1023F000909165000E94640080934907809162007B
:10240000909163000E946400809346078091600071
:10241000909161000E94640080934A0708950F9391
:102420001F9380913D0781119FC0809146078111C4
:102430009BC080917B00823009F496C090913F0749
:1024400091112BC090914707911127C0882309F45F
:102450007EC010927B0081E080933A0700E010E09C
:1024600020E030E040E050E063E08091440790914C
:1024700045070E94551020E030E040E050E063E066
:1024800080914207909143070E94551081E00E947D
:10249000D21381E00E94A4135AC090913E0791117B
:1024A0002BC090914907911127C0813009F44FC08A
:1024B00081E080937B0080933A0700E010E020E009
:1024C00030E040E050E063E08091420790914307A4
:1024D0000E94551020E030E040E050E063E0809141
:1024E0004407909145070E94551081E00E94D21345
:1024F00081E00E94A4132BC090913C07911127C04A
:1025000090914A07911123C0833009F183E08093B1
:102510007B0000E010E020E030E040E050E063E0CD
:1025200080914407909145070E94551020E030E0CB
:1025300040E050E063E080914207909143070E94A1
:10254000551081E00E94D21381E00E94A413809173
:10255000470780933F078091490780933E0780910A
:102560004A0780933C072AC080917B00823031F17A
:10257000833021F183E080937B0081E080933A07F0
:1025800000E010E020E030E040E050E063E08091C7
:102590004407909145070E94551020E030E040E04C
:1025A00050E063E080914207909143070E945510EC
:1025B00081E00E94D21381E00E94A413809146071B
:1025C00080933D0780914007811157C08091480753
:1025D000813009F052C080917B00823021F182E08D
:1025E00080937B0081E080933A0700E010E020E0D8
:1025F00030E040E050E063E080914407909145076F
:102600000E94551020E030E040E050E063E080910F
:102610004207909143070E94551081E00E94D21317
:1026200081E00E94A41380913B078F5F80933B075A
:102630008130F1F083E080937B0081E080933A0762
:1026400000E010E020E030E040E050E063E0809106
:102650004407909145070E94551020E030E040E08B
:1026600050E063E080914207909143070E9455102B
:1026700080913B07817080933B078091480780934E
:1026800040071F910F91089580917D00882341F0AC
:1026900080914107811104C00E94E6110E940F122F
:1026A000809141078F5F60917C000E94D4139093CA
:1026B0004107089580913A078130C9F410923A0792
:1026C00080917B00813039F018F0823039F009C0F8
:1026D0000E94D71008950E94EA1008950E94FD10EC
:1026E000089581E00E94D21381E00E94A41308950E
:1026F000FC018081833019F083B7806883BF33B7D2
:102700009081892F81708295880F880F807C292F76
:102710002270220F220F220F982F922B932B93BF00
:1027200033B79281892F81708295807F292F227003
:102730002295220F207E982F922B932B93BF93B735
:102740008181892B83BF08958CBF0895FC0180810E
:10275000833019F083B7806883BF35B59081892FA6
:1027600081708295880F880F807C292F2270220F1C
:10277000220F220F982F922B932B95BD35B5928166
:10278000892F81708295807F292F22702295220FB8
:10279000207E982F922B932B95BD95B58181892B07
:1027A00085BD089583BD0895991B79E004C0991FE4
:1027B000961708F0961B881F7A95C9F7809508959B
:1027C000AA1BBB1B51E107C0AA1FBB1FA617B70757
:1027D00010F0A61BB70B881F991F5A95A9F7809573
:1027E0009095BC01CD010895EE0FFF1F0590F49167
:1027F000E02D0994FB01DC0102C001900D924150D3
:0A2800005040D8F70895F894FFCF78
:10280A007600730070006D006A000000000001018C
:10281A0000020100030100040103320301014944DB
:10282A004C4500546D72205376630043616C6C69A9
:10283A006E675F706F6C6C0043616C6C696E675F8A
:10284A007377697463686361736573005269676853
:10285A00745F626C696E6B5F74696D6572004C655A
:10286A0066745F626C696E6B5F74696D6572000095
:00000001FF
